:020000040800F2
:10000000485B00205D0200085D480008CD3800080C
:10001000E1450008250C00083559000800000000E3
:100020000000000000000000000000009D0100082A
:100030001D0F000800000000F9010008754E0008BF
:1000400077020008770200087702000877020008AC
:10005000770200087702000877020008770200089C
:10006000770200087702000877020008770200088C
:10007000770200087702000877020008770200087C
:100080007702000877020008490A00087702000892
:100090007702000877020008770200083D0F000889
:1000A000354F0008594F00084D4F0008414F0008D8
:1000B000770200087D4F00087702000877020008E9
:1000C000770200087702000877020008770200082C
:1000D000770200087702000877020008015600083E
:1000E0001F0F00087702000877020008B94F0008C8
:1000F000ED4F0008D14F0008C54F000877020008F7
:1001000077020008770200087702000877020008EB
:100110007702000877020008894F0008770200087C
:10012000410E0008770200085D0E00087702000803
:1001300077020008000000000000000077020008BD
:1001400077020008770200087702000877020008AB
:10015000770200087702000877020008770200089B
:10016000770200087702000877020008770200088B
:10017000770200087702000800000000000000007D
:100180007702000877020008DFF80CD000F0D6FBF9
:1001900000480047E5630008485B00202C4B1968C5
:1001A0000868B0E8F04F80F30988BFF36F8F4FF015
:1001B000000080F3118870470000000008480068C4
:1001C000006880F308884FF0000080F3148862B65E
:1001D00061B6BFF34F8FBFF36F8F00DF00BF00BF6B
:1001E00008ED00E0DFF80C00016841F470010160E7
:1001F000704700BF88ED00E0EFF30980BFF36F8F19
:10020000134B1A681EF0100F08BF20ED108A20E96A
:10021000F04F106009B44FF0500080F31188BFF325
:100220004F8FBFF36F8F07F0D3F94FF0000080F3CB
:10023000118809BC19680868B0E8F04F1EF0100F6B
:1002400008BFB0EC108A80F30988BFF36F8F704746
:1002500028000020EFF30580704700000648804723
:1002600006480047FEE7FEE7FEE7FEE7FEE7FEE79B
:10027000FEE7FEE7FEE7FEE7254F000889010008DC
:100280009FED1A1AF5EE000A40EE010ABDEEE00AF3
:10029000F5EEC00A10EE100AF1EE10FA38BF401E5B
:1002A00000EE100A1349F7EE001AB8EEC00A30EE5D
:1002B000C00ADFED0F0A20EE200AFCEEC00A10EEA5
:1002C000900AC0F3080000EE900A01EB8000F8EEFF
:1002D000600A90ED011A70EE600A90ED000A71EE6E
:1002E000E01A21EE800A00EE810A704783F9223E6F
:1002F00000000044B8800008B5EEC00AF1EE10FA24
:1003000007D2DFED1E0AB4EEE00AF1EE10FAA8BF44
:100310007047DFED1B0AB5EEC00A60EE200ABDEEA5
:10032000E01A11EE100AF1EE10FA38BF401E00EE8E
:10033000100A1549F7EE001AB8EEC00A30EEC00AEE
:10034000DFED100A60EE200ABCEEE00A10EE100AA3
:10035000C0F3080000EE100A01EB8000B8EE400A7E
:1003600090ED011A70EEC00A90ED000A71EEE01AED
:1003700021EE800A00EE810A70470000CD024CB4E5
:1003800083F9223E00000044B88000082DE9F05FA8
:100390000546002092469B468846064681464024F4
:1003A0001BE0284641464746224600F014F95346D2
:1003B0005A46C01A914110D311461846224600F001
:1003C000FBF82D1A67EB01084F4622460120002159
:1003D00000F0F2F817EB00094E41201EA4F10104D1
:1003E000DFDC484631462A464346BDE8F09F40EAF6
:1003F00001039B0703D009E008C9121F08C0042AA3
:10040000FAD203E011F8013B00F8013B521EF9D289
:100410007047D2B201E000F8012B491EFBD27047B1
:100420000022F6E710B513460A4604461946FFF7C0
:10043000F0FF204610BD2DE9FE4F81EA030404F0D1
:10044000004421F0004100944FF0000B23F00043E2
:1004500050EA01045ED052EA03045BD0C3F30A54AD
:10046000C1F30A552C44A4F2F3340194A0FB0254C6
:10047000C1F3130141F48011C3F3130343F4801358
:1004800001FB024400FB034E840A970A44EA8154AC
:1004900047EA8357A4FB076802958D0A05FB078589
:1004A0004FEA932C04FB0C542705029D4FEA065893
:1004B00047EA1637B5EB08056EEB070C870E920E70
:1004C00047EA811742EA8312A7FB0201B6EB0B0150
:1004D00064EB00042B0D43EA0C335E1844EB1C5014
:1004E000DA465146E7FB0201C5F313044FEA0B332A
:1004F00043EA14534FEA0432019C43EA0603A4F191
:100500000C040294009CCDE900B400F083F803B021
:10051000BDE8F08F00200146F9E70EB540F2334107
:1005200002910021CDE900110A460B4600F072F855
:1005300003B000BDC1F30A5210B5C1F3130140F27C
:10054000FF3341F480119A4201DA002010BD40F2DD
:1005500033439A42A2F2334203DC524200F03BF8AA
:1005600010BD904010BD00F0004230F000400AD0B5
:10057000C10D01F56071C0F3160042EA0151C208D5
:1005800040071143704700200146704730B50B46C5
:10059000014600202022012409E021FA02F59D42B3
:1005A00005D303FA02F5491B04FA02F52844151E87
:1005B000A2F10102F1DC30BD202A04DB203A00FA6E
:1005C00002F1002070479140C2F1200320FA03F3AA
:1005D000194390407047202A04DB203A21FA02F0A8
:1005E0000021704721FA02F3D040C2F1200291406D
:1005F00008431946704710B5141E73F1000408DA59
:10060000401C41F1000192185B411A4301D120F0D6
:10061000010010BD2DE9F04D92469B4611B1B1FA93
:1006200081F202E0B0FA80F220329046FFF7C4FF78
:1006300004460F4640EA0A0041EA0B0153465A4677
:10064000084313D0114653EA010019D0C8F1400203
:100650005046FFF7C0FF05460E46504659464246F3
:10066000FFF7AAFF084305D0012004E020463946E1
:10067000BDE8F08D0020054346EAE0762C43374381
:100680000A986305E40AA0EB08000022FD0A44EA88
:1006900047540A3002D500200146E9E70105101948
:1006A0006941DDE9084500196941BDE8F04DA2E75F
:1006B0002DE9FE4F804681EA0300C00F0C460090F2
:1006C00021F0004123F00045B8EB0200A94105D21A
:1006D0004046214690461C460B46024623F0004009
:1006E000104347D0270DC7F30A00C3F30A51029005
:1006F000401A019040286BDAC3F3130040F4801BCA
:100700000098924620B10023D2EB030A63EB0B0B57
:1007100001985946C0F140025046FFF74DFF06468A
:100720000D4650465946019A00F01AF910EB0800A0
:100730006141002487EA115284EAE7731A4340D0EA
:10074000009A62B3019A012A4FEA075215DC001B96
:1007500061EB02014FF0004202EA0752CDE900428C
:10076000001C41F5801132462B46FFF753FF03B0C2
:10077000BDE8F08F40462146F9E7001B61EB02011E
:10078000001C41F5801300185B412018A2F50017EA
:1007900047EB030140EAD570B6196D4111E06D08D1
:1007A0004FEA360645EAC0754FEA0752001B61EB77
:1007B0000201001C41F5801149084FEA3000001980
:1007C000514132462B4603B0BDE8F04FFFF713BF4F
:1007D0000098012240000023D0EB020263EBE0739B
:1007E000009821464FEAE074B8EB000061EB040189
:1007F000E9E783F000435BE781F0004158E72DE92A
:10080000F04D81EA030404F0004B21F0004514464A
:100810004FF0000A23F0004150EA050220D054EACC
:1008200001021DD0C5F30A570246C5F31303C1F3F5
:100830001300C1F30A5640F4801543F48013A7EB6C
:100840000608101BD64608F2FD3873EB050002D3EC
:1008500008F1010801E092185B41B8F1000F03DADA
:1008600000200146BDE8F08D00204FF480110646BF
:1008700084460EE0171B73EB050705D3121B63EBD1
:10088000050306434CEA010C49084FEA3000921870
:100890005B4150EA0107EDD152EA030012D082EA2F
:1008A000040083EA0501084305D0101BAB4106D2C2
:1008B0000122002306E000224FF0004302E06FF027
:1008C000010253101AEB06004CEB085110EB0A0022
:1008D00041EB0B01BDE8F04DFFF78DBEC1F30A52AD
:1008E000C1F3130140F2FF3341F480119A4202DA5E
:1008F00000200146704740F233439A42A2F233424D
:1009000002DC5242FFF767BEFFF756BE30B5041E49
:1009100071F1000404DB4FF00044404264EB01013C
:10092000141E73F1000405DB1C464FF000435242D5
:1009300063EB0403994208BF904230BD064C074D5B
:1009400006E0E06840F0010394E80700984710349F
:10095000AC42F6D3FFF71CFCE088000800890008D1
:10096000202A06DBCB17203A41FA02F043EAE07373
:1009700006E041FA02F3D040C2F120029140084360
:100980001946704710B50446022200F50E7100F0BA
:1009900091FDB4F83802B4F83E12411AA4F8481197
:1009A000B4F83A02B4F84022801AA4F84A01084484
:1009B0004042A4F84C0110BD10B50146806B026C9A
:1009C00012F0500F05D0026CD20626D500F00AFCBA
:1009D00010BD016C41F40071016401688A6812F075
:1009E000405F17D1027EAAB9CA6A12F4700F02D012
:1009F0008A6852050ED44A6822F020024A60016CCF
:100A000021F480710164016CC90403D4016C41F0CC
:100A10000101016400F0E4FB10BD806BC26CBDE815
:100A200010400846104710B5806B40210164416CAE
:100A300041F00401416400F0D5FB10BD10B5806B9E
:100A400000F0CFFB10BD000010B5044800F0CBFB58
:100A5000BDE81040024800F0C6BB0000540500206D
:100A60009C050020464910B54A6822F440324A608D
:100A70004A6843681A434A6001684A6822F48072EF
:100A80004A6001684A68036942EA03224A600168D1
:100A90004A6822F040724A6001684A6883681A43D3
:100AA0004A6001688A6822F400628A6001688A6884
:100AB000C3681A438A60816A6FF07062D14201682C
:100AC0008A6822F070628A6001688A680CD0836A42
:100AD0001A438A6001688A6822F040528A6001687D
:100AE0008A68C36A1A4301E022F040528A600168B2
:100AF0008A6822F002028A6001688A68037E42EAFC
:100B000043028A6090F82010002901684A680FD0DB
:100B100042F400624A6001684A6822F460424A6016
:100B200001684A68174C436A04EB43331A4301E0F7
:100B300022F400624A600168CA6A22F47002CA6242
:100B40000168CA6A838B104C04EB03531A43CA62D0
:100B500001688A6822F400728A6001688A6890F8E5
:100B6000303042EA43228A6001688A6822F4806257
:100B70008A6001688A68406942EA8020886010BD06
:100B80000023014000E0FFFF0000F0FFB0F8D611A5
:100B9000D0ED700A00EE101AB8EE400A30EEC00A2E
:100BA000DFED1F0A10EE101A80ED710AB1F18A4FC5
:100BB00003DD30EE600A80ED710A10EE101AB1F11B
:100BC000454F03D930EE200A80ED710A90ED730A8B
:100BD000D0ED710A90ED6E1A00EE810A80ED730A75
:100BE00090ED7A1AB4EEC10AF1EE10FA06DCB1EE1D
:100BF000411AB4EEC10AF1EE10FA01D280ED731A77
:100C0000C0ED720A90ED730A90ED6D1A01EE200AA4
:100C100070EEE00A90ED6F1A01EE200A03F085BF36
:100C200000008045FEE70000B0F90010B6EE001AA3
:100C300000EE101AB0F90210B0F9042000EE901A7C
:100C4000B8EEC00AF8EEE00A00EEC10A00EE902A03
:100C5000F8EEE00A00EEC10ADFED090A80ED020AB3
:100C600000EE101AB8EEC00A20EE201A00EE102A8C
:100C7000B8EEC00A00EE601A80ED031A704700005B
:100C8000D7B35D3FB0F94811DFED250A00EE101A29
:100C9000B0F94812B8EEC00A01EE101A20EE200A90
:100CA000F8EEC11A9FED1F1A01EE810ABDEEC00ACF
:100CB00010EE101AA0F84811A0F84812B0F94A1125
:100CC00000EE101AB0F94A12B8EEC00A01EE901AFE
:100CD00020EE200AF8EEE11A01EE810ABDEEC00A0C
:100CE00010EE101AA0F84A11A0F84A12B0F94C11EF
:100CF00000EE101AB0F94C12B8EEC00A20EE200A2D
:100D000000EE901AF8EEE00A00EE810ABDEEC00A8D
:100D100010EE101AA0F84C11A0F84C127047000009
:100D2000295C8F3D7B146E3F2DE9F047294E044628
:100D300001220421304601F038F8DFF89C904FF48E
:100D4000007801224146484601F02FF823A004F024
:100D5000F3FD4FF47A7000F0F1FE0020A4F83E029B
:100D6000A4F84002054604F50E77022239462046D3
:100D700000F0A0FBB4F83E02B4F838120844A4F81E
:100D80003E02B4F84002B4F83A221044A4F84002FB
:100D900019A004F0D1FD6D1C0A2DE6DBB4F83E125B
:100DA0000920B1FBF0F1A4F83E12B4F84022B2FBE6
:100DB000F0F2A4F8402218A004F0BEFD00220421A5
:100DC000304600F0F2FF41464846BDE8F0470022B9
:100DD00000F0EBBF000402400008024044435F6F94
:100DE00066667365742063616C6962726174696EB2
:100DF000672E2E2E0A00000044435F6F66667365FF
:100E0000742063616C6962726174696E673A20254F
:100E1000642C2025640A000044435F6F6666736596
:100E2000742063616C6962726174696F6E206669B7
:100E30006E69736865643A2025642C2025640A0075
:100E400010B5044800F08EF8BDE81040024800F0EC
:100E500003BD0000AC000020E405002010B50448EC
:100E600000F080F8BDE81040024800F0F5BC00003A
:100E7000000300204406002001681823CAB2103A7B
:100E8000B2FBF3F2054B6FF30901032A9B5CC365C8
:100E900000D9091D81650846704700009880000848
:100EA00010B5014600208B698A6A4FF0C07453B1B7
:100EB000B3F5005F15D072B1012A0CD0022A0AD016
:100EC000032A09D104E01AB1012A06D0022A03D16B
:100ED000C96AC90100D5012010BDC96AA142FAD072
:100EE00010BD002AF7D0012AF2D0022AF3D0032A3B
:100EF000F3D010BD30B50468256825F48025256041
:100F0000046863608368402B036803D099600068BD
:100F1000C26030BD9A600068C16030BD704710B5D6
:100F20004FF4005000F030FE4FF4804000F02CFEF3
:100F3000BDE810404FF4004000F026BE10B5202060
:100F400000F022FEBDE810404FF4007000F01CBE1F
:100F500001220821014800F028BF000000040240DF
:100F600072B6FEE710B5044605F0A4F92046FFF777
:100F700089FE04F5A4700346FFF756FEB4F9DA11B2
:100F8000184603F06DFC94F82C01012804D00228C7
:100F900016D0032803D117E0204603F0DBFD2046DE
:100FA00002F06EFE204602F0FFFEB4F9DA1104F5FD
:100FB000987002F0B9FE2046BDE8104003F0DABC9C
:100FC0002046FFF7E3FDE7E72046BDE8104005F0C7
:100FD00055B90000044B4FF4805118B10122184656
:100FE00000F0E3BE0022FAE70008024090ED4F0A4D
:100FF000DFED251A80ED800AD0ED4E0ADFED232AC1
:10100000B0EE401AB0EE402A10EEA11A10EEA22A5D
:10101000F6EE001AB5EEC00A21EE211A62EE210AA0
:1010200080ED811AF1EE10FAC0ED820A01DD012394
:1010300000E00023B5EEC01AF1EE10FA01DD012246
:1010400000E00022F5EEC00AF1EE10FA01DD012108
:1010500000E00021890001EB42011944072912D266
:10106000DFE801F011060E040A080C00012108E077
:10107000022106E0032104E0042102E0052100E052
:10108000062180F8FC117047D7B3DD3FD7B3DDBF31
:101090007047000078B50024009490F83C20012AA5
:1010A00019D0012280F83C200A6807230568092A24
:1010B00013D9EE680A3A02EB420293409E43EE6077
:1010C0000B788A680A3B03EB43039A400368DD68A8
:1010D0002A43DA6010E0022078BD2E6902EB42025A
:1010E00093409E432E610B788A6803EB43039A403A
:1010F00003681D692A431A614A681F23072A13D20D
:1011000005686E6B521E02EB820293409E436E6333
:101110000B790A885B1E92B203EB83039A40036843
:101120005D6B2A435A6327E005680D2A12D22E6BA5
:10113000D21F02EB820293409E432E630B790A88F2
:10114000DB1F92B203EB83039A4003681D6B2A43B3
:101150001A6311E0EE6A0D3A02EB820293409E435D
:10116000EE620B790A880D3B92B203EB83039A403F
:101170000368DD6A2A43DA62164B0568144A9D4209
:1011800006D10D68122D03D1556845F480055560D0
:1011900005689D4218D10B68102B01D0112B13D17B
:1011A000536843F400035360096810290CD10A49BD
:1011B0000A4A0968B1FBF2F101EB8101490000E044
:1011C000491E00910029FBD180F83C40002078BDE9
:1011D00000230140002001402400002040420F0075
:1011E00070477047704770B50446006806684568E8
:1011F00016F0020F05F020012AD049B3216CC90670
:1012000003D4216C41F400712164816811F0405FC6
:1012100017D1217EA9B9C16A11F4700F02D081687B
:1012200049050ED4416821F020014160206C20F472
:1012300080702064206CC00403D4206C40F0010056
:1012400020642046FFF7CCFF21686FF01200086091
:1012500016F0040F05F0800132D089B3206CC0066F
:1012600003D4206C40F4005020642068816811F49D
:10127000401F1ED1816B11F4401F02D081684905C7
:1012800017D44168490514D4816811F0405F10D12A
:10129000217E71B9416821F080014160206C20F409
:1012A00080502064206CC00503D4206C40F0010005
:1012B00020642046FFF7ECFE21686FF00C00086008
:1012C00016F0010F05F040010FD071B120680068E1
:1012D000C0070AD0206C40F480302064204600F023
:1012E00043F821686FF00100086016F0200F05F048
:1012F00080610ED000290CD0606C40F00200606468
:1013000020686FF0200505602046FFF76BFF20681E
:10131000056070BD70B504004FF0000503D0206C6F
:10132000002610B107E0012070BD204600F01EF835
:10133000666484F83C60206CC00610D4206C20F4F5
:10134000885040F0020020642046FFF78BFB666463
:10135000206C20F0020040F00100206400E0012534
:1013600084F83C60284670BD704700002DE9F04FBE
:1013700087B0054614216846FFF752F84748464BA8
:1013800014382A68002445490326DFF814B10715EC
:101390004FF400684FF400594FF4807A9A4239D1E3
:1013A0000A6842F480720A60096801F4807105914C
:1013B000016841F001010160016801F0010105913E
:1013C000016841F0040101600068694600F0040012
:1013D00005900720CDE900060294584600F0E0FB96
:1013E0003020CDE90006694602942E4800F0D8FB73
:1013F0002E4E2D4806F10C02C6E90004B46082E8C6
:1014000090073462304674623FE0AE63B56307B064
:10141000BDE8F08F264B9A42F9D10A6842F4007277
:101420000A60096801F400710591016841F0040146
:101430000160016801F004010591016841F00101BA
:1014400001600068694600F0010005900F20CDE9B9
:1014500000060294134800F0A3FB1820CDE9000613
:1014600069460294584600F09BFB104E0E486036C9
:10147000303030604FF00070C6E9010406F10C0214
:10148000304682E890073462746200F0B5FA0028B2
:10149000BBD0FFF765FDB8E70020014044380240AB
:1014A000000002400008024010640240E4050020F1
:1014B00000210140F8B5044600200E46009094F843
:1014C0003C10012907D0012184F83C1021688B6869
:1014D000DB0702D011E00220F8BD8B6843F0010366
:1014E0008B604049404B0968B1FBF3F101EB4101CE
:1014F00000E0491E00910029FBD121688B68DB05C3
:1015000003D58B6823F480738B6021688B68DB07BD
:101510005DD0236C40F20165AB4343F480732364D8
:101520004968490505D5216C21F4005141F48051E9
:101530002164216CC90404D5616C21F00601616449
:1015400000E0606484F83C00A16B2948274DC86323
:10155000A16B28480864A16B2748C86421686FF014
:10156000220008602068416841F080614160206885
:10157000816841F4807181602168134632464C31A4
:10158000A06B00F0A3FA68681C49C006206806D06A
:10159000884224D1816811F0405F13D01FE0884257
:1015A000F8D0174A904203D1D1F80423D206F1D0E3
:1015B000144A904213D1D1F8041301F01F011029ED
:1015C000E8D30CE0816841F08041816007E0206C45
:1015D00040F010002064606C40F001006064002066
:1015E000F8BD00002400002040420F00002301400D
:1015F000B90900083D0A0008270A00080020014038
:10160000002101400022014070B5040003D094F88D
:10161000200010B104E0012070BD204600F082F8E7
:101620002068016841F00101016000F0C3FB05463C
:10163000052604E000F0BEFB401B0A2811D82068F4
:101640004068C007F6D02068016821F002010160FF
:1016500000F0B0FB05460BE000F0ACFB401B0A2895
:1016600006D9606A40F40030606284F82060D2E7F6
:10167000206840688007EFD4207E01282068016838
:101680003DD021F080010160607E01282068016862
:1016900038D021F040010160A07E01282068016857
:1016A00033D021F020010160E07E0128206801682C
:1016B0002ED041F010010160207F012820680168D0
:1016C00029D021F008010160607F012820680168AD
:1016D00024D021F004010160D4E902010843D4E9D7
:1016E0000412114308436168491E08432168C86118
:1016F00000206062012084F82000002070BD41F0CD
:101700008001C0E741F04001C5E741F02001CAE790
:1017100021F01001CFE741F00801D4E741F00401C6
:10172000D9E7000010B586B0044614216846FEF7DC
:1017300077FE18492068884229D11748002102689D
:1017400042F080620260026802F0806205920268E4
:1017500042F000720260006800F0007005900E48D0
:101760001038026842F002020260006800F00200D5
:1017700005904FF4405000900220CDE90101032074
:101780000390092004906946044800F009FA06B065
:1017900010BD0000006800404038024000040240D4
:1017A0002DE9F0410446876D00F004FB064694F8ED
:1017B00035000025022806D08020606584F834506A
:1017C0000120BDE8F0812068016821F01601016068
:1017D0002068416921F080014161206C08B9A06C4A
:1017E00020B12068016821F00801016020680168CB
:1017F00021F0010101600CE000F0DCFA801B0528FB
:1018000007D920206065032084F8350084F834501F
:10181000D7E720680068C007EED194F85C103F203D
:101820008840B860012084F8350084F834500020E6
:10183000C7E790F83510022903D0802141650120C7
:101840007047052180F835100068016821F001011A
:1018500001600020704700002DE9F84304464FF076
:101860000009CDF8009063484FF41651A56D00684B
:10187000B0FBF1F72E6894F85C10082000FA01F133
:1018800031420FD021680A6852070BD50A6822F04E
:1018900004020A6094F85C108840A860606D40F013
:1018A0000100606594F85C104FF0010808FA01F03F
:1018B000304208D021684969090604D5A860606DE6
:1018C00040F00200606594F85C10042088403042CB
:1018D00008D021680968890704D5A860606D40F0C8
:1018E0000400606594F85C1010208840304218D0E5
:1018F00021680968090714D5A860206801684903B0
:1019000004D50068000308D5A16C07E00168C9058B
:1019100003D4016821F008010160216C09B120465F
:10192000884794F85C1020208840304231D02168EC
:101930000968C9062DD5A86094F8350005282068E7
:10194000016806D0490347D5006800031DD4616CC7
:101950001CE021F0160101602068416921F080013E
:101960004161206C08B9A06C20B12068016821F0A9
:101970000801016094F85C103F208840A86084F85A
:10198000358084F83490216D1FE0E16B09B1204669
:101990008847606D00282BD0606DC00714D00520EB
:1019A00084F835002068016821F001010160009889
:1019B000401C0090B84203D820680068C007F6D1E8
:1019C00084F8358084F83490E16C002910D001B09F
:1019D0002046BDE8F04308470168C905D5D4016831
:1019E00021F01001016084F8358084F83490CCE750
:1019F000BDE8F883240000202DE9F041044600F002
:101A0000D9F906465CB1022084F83500002584F837
:101A100034502068016821F0010101600DE00120CF
:101A2000BDE8F08100F0C6F9801B052805D920200B
:101A30006065032084F83500F2E720680068C0077D
:101A4000F0D12268116820480140D4E9010318430D
:101A5000D4E903363343184363691843A369184331
:101A6000E3691843236A18430843616A042903D1D0
:101A7000D4E90B1319430843106020684069666A73
:101A800020F0070130460E43012704280CD1A06A3C
:101A90000643E06A40B12046FFF702FA20B1402039
:101AA000606584F83570BAE7206846612046FFF724
:101AB000E3F994F85C203F2191408160656584F8EA
:101AC00035700020ACE700003F8010F02DE9F041B8
:101AD0000446866D90F83400002501280DD00120C1
:101AE00084F8340094F835700020012F07D084F872
:101AF000340002252846BDE8F0810220FBE70227DA
:101B000084F8357060652046FFF7F4F994F85C10AE
:101B10003F208840B0602068016841F016010160F4
:101B2000206C20B12068016841F008010160206844
:101B3000016841F001010160DCE7000070B5044676
:101B400000F038F90546601C02D0044800780444CF
:101B500000F030F9401BA042FAD370BD18000020FD
:101B600010B520280CD1074C2021204600F010F998
:101B7000012805D12046BDE81040082100F00DB92C
:101B800010BD000000040240044910B50A6802427A
:101B900002D00860FFF7E4FF10BD0000143C0140D4
:101BA0002DE9F84FDFF8BCA10022012503264FF0F4
:101BB0000F090AF1040BAAF1040E00BF0B6805FA25
:101BC00002F42340A34270D10F7907F00307012FDD
:101BD00001D0022F16D187684FEA420806FA08FCA6
:101BE00027EA0C07D1F80CC00CFA08FC4CEA070CE9
:101BF000C0F808C04768A7430C79C4F300149440A8
:101C00003C4344600C79E443A4070AD0C4684FEA1B
:101C1000420C06FA0CF7BC438F6807FA0CF727430F
:101C2000C7600C7904F00304022C12D1D40800EB35
:101C3000840CDCF820405707FF0E09FA07F824EA65
:101C40000804D1F8108008FA07F848EA0408CCF82C
:101C5000208004684FEA420C06FA0CF7BC430F7967
:101C600007F0030707FA0CF7274307604C6814F4E2
:101C7000403F70D03C4C276847F480472760246879
:101C800022F0030704F480440094384C07EB040C62
:101C9000DCF8084897074FEA177809FA08F7BC43B9
:101CA000334FB84202D1002724E054E0314FB8420C
:101CB00001D101271EE0304FB84201D1022719E0BF
:101CC0002E4FB84201D1032714E02D4FB84201D165
:101CD00004270FE02B4FB84201D105270AE02A4F15
:101CE000B84201D1062705E0284FB84201D10727A5
:101CF00000E0082707FA08F72743CCF80878DAF855
:101D000000405746D1F804C09C435FEACC2C00D574
:101D10001C433C60DBF800405F46D1F804C09C43A4
:101D20005FEA8C2C00D51C433C60DEF8004077460F
:101D3000D1F804C09C435FEA8C3C00D51C433C6056
:101D4000084F083F3C68D1F804C09C435FEACC3C94
:101D500000D51C433C60521C102AFFF42FAFBDE895
:101D6000F88F0000083C0140443802400030014038
:101D7000000002400004024000080240000C024043
:101D8000001002400014024000180240001C0240F3
:101D90000069084000D001207047426921EA02032F
:101DA0000A4043EA0241816170470AB1816170478C
:101DB0000904FBE701488068704700001800002014
:101DC00070B5040025D094F83D00002520B984F8B2
:101DD0003C50204600F03EFA242084F83D00206864
:101DE000016821F0010101602068016841F40041AF
:101DF00001602068016821F40041016000F09EFC50
:101E00004D4A6168914201D84C4900E04C498842F2
:101E100001D2012070BD4B492368B0FBF1F15E682F
:101E200026F03F060E435E606368934206D94FF486
:101E3000967359434FF47A73B1FBF3F12368491C4D
:101E40001E6A26F03F06314319626168914210D83C
:101E50004900401EB0FBF1F2521CC2F30B02042AEF
:101E600001D2042022E0B0FBF1F0401CC0F30B00D3
:101E70001CE0A268F2B301EBC10303EB0116431EA1
:101E8000B3FBF6F35B1C43F480431B0549D092B3CC
:101E900001EBC10202EB0111401EB0FBF1F0401C4E
:101EA000C0F30B0040F4804040F400402168CA6950
:101EB0004CF6FF739A431043C861D4E907100143FD
:101EC0002068026822F0C00211430160D4E90301D6
:101ED00001432068826848F2FF339A4311438160CE
:101EE000D4E9050108432168CA6822F0FF021043C3
:101EF000C86001E00EE016E02068016841F00101D1
:101F000001602564202084F83D00256384F83E505C
:101F1000002070BD01EB4106431EB3FBF6F35B1CD2
:101F2000B3E70120C2E701EB4101401EB0FBF1F035
:101F3000401CC0F30B00B7E7A086010080841E00A0
:101F400000093D0040420F002DE9F84F1F46904622
:101F50008A460446DDF82890FFF72CFF054694F8E2
:101F60003D00202875D1192301226C492046009597
:101F700001F0AEFD0028F5D194F83C00012868D0AE
:101F8000012084F83C0020680168C90703D101687A
:101F900041F0010101602068016821F400610160E5
:101FA000222084F83D00102084F83E00002626649C
:101FB000C4F824806785608D20855948E0622B46EF
:101FC0004A465146204601F099FC002878D1208DE0
:101FD000544F68B1012814D002282068016816D037
:101FE00041F480610160206841698069009087E068
:101FF0002068416981690091016841F400710160C4
:102000007EE02068016821F480610160F0E721F43E
:10201000806101602068016841F40061E2E7032803
:1020200048D801280AD0022814D04B46002239464D
:102030002046009501F04CFDD8BB27E02A464946D2
:10204000204601F0C4FDA0BB20680069616A0870E9
:102050004DE061E04B46002239462046009501F0F4
:1020600037FD30BB2068016841F4007101602068D1
:102070000069616A0870606A401C6062218D491EB7
:102080002185618D491E618521682EE020680168E7
:1020900021F48061016020680069616A0870606AEB
:1020A000401C6062208D401E2085608D401E608532
:1020B000D0E705E02A464946204601F088FD10B1E8
:1020C0000120BDE8F88F20680069616A0870606AC5
:1020D000401C6062218D491E2185618D491E6185EC
:1020E00021684A69D24352070AD409690170606ABB
:1020F000401C6062208D401E2085608D401E6085E2
:10210000208D00288BD1202084F83D0084F83E608B
:1021100084F83C600020D4E70220D2E702001000DF
:102120000000FFFF040001002DE9F84F1F46904614
:102130008A460446DDF82890FFF73CFE054694F8F1
:102140003D0020287FD119230122404920460095D7
:1021500001F0BEFC002876D194F83C00012872D032
:10216000012084F83C0020680168C90703D1016898
:1021700041F0010101602068016821F40061016003
:10218000212084F83D00102084F83E0000262664BB
:10219000C4F824806785608D20852D48E0622B4639
:1021A0004A465146204601F01FFC90B9206841691B
:1021B0008069009036E02A464946204601F03AFD03
:1021C00050B1206C042804D12068016841F40071EA
:1021D00001600120BDE8F88F606A2168007808611D
:1021E000606A401C6062618D491E6185218D491EB7
:1021F00089B2218522685369DB435B070BD451B157
:1022000000781061606A401C6062608D401E6085CD
:10221000208D401E20852A464946204601F032FC8A
:102220000028CED1208D0028C5D154F83D0B01687F
:1022300041F400710160202004F81E09E6776677FA
:102240000020C7E7FFE70220C4E7000002001000FB
:102250000000FFFFF0B587B0044614216846FEF782
:10226000DFF82768234CDFF888C0002221491223B9
:102270000325042620481034674518D10F6847F01D
:1022800002070F60096802AF01F002010591C02149
:10229000CDE9001387E864006946FFF781FC2068F8
:1022A00040F400102060206800F400101CE0DFF80B
:1022B0004CC0674519D10F6847F002070F600968E5
:1022C00002AF01F0020105914FF44061CDE9001326
:1022D00087E864006946FFF763FC206840F48000EB
:1022E0002060206800F48000059007B0F0BD000079
:1022F00000540040303802400004024000580040C2
:1023000002488168027811448160704718000020FB
:102310000B4810B5016841F400710160016841F497
:1023200080610160016841F480710160032000F068
:102330008DF80F2000F006F800F03EF8002010BDE8
:10234000003C024010B5014688B000222D2000F06C
:102350005DF82D2000F04CF813480024016841F48A
:1023600080710160006805A900F4807006906846DD
:1023700000F0C4F900F0E2F90C494000B0FBF1F1C3
:102380000C480B4A491E026040F2E732C0E90324C0
:10239000C0E9011400F0ACFC10B1012008B010BD80
:1023A000044800F0F1FCF9E74038024040420F00D9
:1023B000002000402C0E00200C4882B0016841F43F
:1023C00080410160006800F4804000900748001FD1
:1023D000016841F0805101600068002200F08050E7
:1023E00000900F21901E02B000F010B84438024057
:1023F000002809DB00F01F02012191404009800004
:1024000000F1E020C0F8001170470000F0B40E4B5E
:102410001B680C46C3F30223C3F10705042D00D942
:102420000425191D072901D2002300E0DB1E012627
:1024300006FA05F1491E214099409E40761E16403D
:102440003143F0BC03F088BA0CED00E0064900F01F
:10245000070208684FF6FF03184040EA0220034ACB
:1024600010430860704700000CED00E00000FA0522
:102470002DE9F0418AB0040005D094F8BD04266827
:10248000002520B108E001200AB0BDE8F08184F801
:10249000BC54204600F05EF8032084F8BD04F06BC5
:1024A000C00500D42561206803F0D2F904F11001C1
:1024B000282288466846FDF79AFF94E80F0003F04B
:1024C000A5F80226C8BB0021206803F005FA002009
:1024D00001270EE000EBC00104EB810181F83D70A3
:1024E00001F83C0F08810D71CD600D61401CC0B238
:1024F0008D6161688142EDD8002011E000EBC001E0
:1025000004EB810181F87D5281F87C0281F88052D0
:10251000C1F88852C1F88C52401CC0B2C1F8945224
:1025200061688142EAD8282241466846FDF75FFF8C
:1025300094E80F0003F0D2F810B184F8BD64A2E76C
:1025400084F8385084F8BD74206803F0B9F800208E
:102550009AE7000010B586B0044614216846FDF7DE
:102560005FFF2068B0F1A04F27D115480021026815
:1025700042F001020260006800F0010005904FF493
:10258000C05000900220CDE90101032003900A20F1
:10259000049069460B48FFF703FB0948001D0168DA
:1025A00041F08001016006481430016841F4804127
:1025B0000160006800F48040059006B010BD000086
:1025C00030380240000002402DE9F0470E46050079
:1025D00065D0DFF81481D8F80000F7B200F00700EA
:1025E000B04207D288F80070D8F8000000F0070069
:1025F000B04254D128683D4C810712D5400703D51D
:10260000206840F4E05020602878000703D5206857
:1026100040F4604020602068A96820F0F000084382
:1026200020602878C0072DD0304968680839012813
:1026300012D0022813D0032811D009688907002975
:102640002DDA216821F0030101432160FFF7B2FB7D
:10265000814641F2883A0EE009688903EFE709688C
:102660008901ECE7FFF7A6FBA0EB0901514502D970
:102670000320BDE8F0872068696800F00C00B0EB2B
:10268000810FEFD1D8F80010404601F00701B142A8
:1026900007D90770006800F00700B04201D00120A0
:1026A000E7E72878400705D52068E96820F4E0507E
:1026B000084320602878000706D52068296920F49F
:1026C000604040EAC100206000F058F82168084AE4
:1026D000C1F30311515CC840064908600648006810
:1026E000FFF730FE0020C4E7003C024008380240FB
:1026F000A0800008240000201C0000200F2202609F
:102700000C4A136803F003034360136803F0F003FB
:102710008360136803F4E053C36012684FF4E0531E
:1027200003EAD20202610448006800F00700086072
:102730007047000008380240003C02400448054948
:1027400000680968044AC1F38221515CC84070479F
:102750002400002008380240B080000804480549E1
:1027600000680968044AC1F34231515CC8407047AF
:102770002400002008380240B0800008154810B539
:10278000006810F00C02144813D04110042A0FD036
:10279000082A0ED10F4C241F2268236802F03F0242
:1027A0005B0207D52068C0F38810A0FB010106E09A
:1027B000084610BD2168C1F38811A1FB0001002368
:1027C000FDF7E4FD2168C1F30141491C4900B0FB5C
:1027D000F1F010BD083802400024F4002DE9F84F54
:1027E00004006ED02078DFF84C93C007A9F10405EF
:1027F0004AD009F104000168C1F38101012908D020
:102800000068C0F3810002280AD1D9F80000400214
:1028100006D52868800337D560680028E1D033E00A
:102820006068B0F5803F10D0B0F5A02F286810D0B8
:1028300020F480302860286820F4802028606068B8
:10284000A8B1FFF7B7FA06460DE0286840F48030DB
:10285000F4E740F480202860F7E700BFFFF7AAFA0A
:10286000801B642873D828688003F7D50CE0FFF735
:10287000A1FA064605E000BFFFF79CFA801B64281A
:10288000F0D828688003F7D42078DFF8AC8280077E
:102890004FF0000A3ED5A748001D016811F00C0F4B
:1028A00008D00068C0F3810002280BD1D9F80000DD
:1028B000400207D42868800716D5E068012800D1B7
:1028C00012E033E1E068B8B10120C8F80000FFF77A
:1028D00071FA064605E000BFFFF76CFA801B02287C
:1028E000C0D828688007F7D52868216920F0F8004B
:1028F00040EAC10028600DE0C8F800A0FFF75AFACE
:10290000064604E0FFF756FA801B02281FD8286805
:102910008007F7D42078000722D5864F8748616961
:10292000703771B101210160FFF744FA064604E0F7
:10293000FFF740FA801B022809D838688007F7D5CE
:102940000EE0C0F800A0FFF735FA064605E082E089
:10295000FFF730FA801B02287DD838688007F7D44B
:102960002078400768D5DFF8CCB100270BF13C0B8D
:10297000DBF80000C0000BD4DBF8001041F0805100
:10298000CBF80010DBF80000012700F08050009029
:102990006B4E3068C00510D4306840F480703060F1
:1029A000FFF708FA009005E0FFF704FA0099401AD3
:1029B000022850D83068C005F6D55E4EA0686C3647
:1029C00001280FD00528306810D020F001003060B9
:1029D000306820F004003060A068B8B1FFF7EAF971
:1029E00000900FE0306840F00100F4E740F0040090
:1029F0003060F7E7FFF7DEF90099411A41F28830BD
:102A0000814266D830688007F4D50EE0FFF7D2F92E
:102A1000009007E0FFF7CEF90099411A41F28830A3
:102A2000814256D830688007F4D42FB1DBF800100B
:102A300021F08051CBF80010A069C8B33D49091DB1
:102A40000968C1F3810102294AD00228504607D003
:102A5000C8F8600000E03CE0FFF7ACF904463BE05A
:102A60004746C8F86000FFF7A5F9064605E000BF35
:102A7000FFF7A0F9801B02282BD828688001F7D423
:102A8000D4E907010843A16A2E4A490802EB014133
:102A9000626A41EA8211084394F82C1040EA01610D
:102AA000C9F8001001203866FFF784F9044606E0F3
:102AB0003EE000BFFFF77EF9001B022809D8286816
:102AC0008001F7D534E000BFFFF774F9001B02283E
:102AD00002D90320BDE8F88F28688001F4D427E0EC
:102AE0000128F7D0D9F80000E26900F48001914292
:102AF0001CD1226A00F03F01914217D147F6C07104
:102B0000626A0140B1EB821F10D1A26A4FF0FF331D
:102B100000F4403103EB5202B1EB024F06D194F8BE
:102B20002C1000F07060B0EB016F01D00120D1E7F4
:102B30000020CFE70438024000004742800E4742A1
:102B4000007000400000FFFF7047704710B590F81C
:102B50003C20012A22D0012280F83C20CA688C68DF
:102B600022F4407222434C6822F4806222430C68B3
:102B700022F4006222430C6922F4805222434C6901
:102B800022F400522243C969002322F480420A43FE
:102B900001684A6480F83C30002010BD022010BD5E
:102BA00070B590F83C20012A32D0012480F83C40D6
:102BB000022280F83D2003685A689D6822F0700662
:102BC0000A6832435A60134B02689A4214D0B2F139
:102BD000804F11D0104B9A420ED0104B9A420BD01E
:102BE0000F4B9A4208D00F4B9A4205D00E4B9A4297
:102BF00002D00E4B9A4204D1496825F08003194354
:102C0000916080F83D40002180F83C10084670BD7E
:102C1000022070BD00000140000400400008004098
:102C2000000C00400004014000400140001800403A
:102C300010B50446022249B104290ED0082913D048
:102C400094F84500012816D0012010BD94F84200E8
:102C50000128F9D184F842200FE094F843000128BC
:102C6000F2D184F8432008E094F844000128EBD125
:102C700084F8442001E084F845200422206802F012
:102C800044FA2068416C41F40041416411492068D4
:102C9000884214D0B0F1804F11D00F4988420ED035
:102CA0000E4988420BD00E49884208D00D4988420F
:102CB00005D00D49884202D00C49884204D1816870
:102CC00001F00701062903D0016841F0010101600C
:102CD000002010BD0000014000040040000800403A
:102CE000000C00400004014000400140001800407A
:102CF00010B5040003D094F83D0010B107E00120A6
:102D000010BD002084F83C00204600F01FF802208F
:102D100084F83D00211D206802F086F9012084F826
:102D2000460084F83E0084F83F0084F8400084F8B0
:102D3000410084F8420084F8430084F8440084F899
:102D4000450084F83D00002010BD000008B5006873
:102D50000B49884212D10B48016841F01001016013
:102D60000068002200F01000009005213620FFF7D7
:102D70004DFBBDE808403620FFF73ABB08BD000018
:102D8000001000404038024090F83D10012901D069
:102D900001207047022180F83D100168CA6842F0A6
:102DA0000102CA6000681149884214D0B0F1804F16
:102DB00011D00F4988420ED00E4988420BD00E49DF
:102DC000884208D00D49884205D00D49884202D07A
:102DD0000C49884204D1816801F00701062903D01B
:102DE000016841F0010101600020704700000140CE
:102DF0000004004000080040000C004000040140B6
:102E0000004001400018004070472DE9F0410546A0
:102E100090F83C0000260C46012810D0012085F8CF
:102E20003C0072B1042A1CD0082A2CD00C2A50D0A5
:102E30000126002085F83C003046BDE8F0810220E4
:102E4000FBE7D4E90012E368286802F02DFA28684D
:102E5000816921F00C01816128688169A2681143B0
:102E60000FE0D4E90012E368286802F05DFA2868F0
:102E7000816921F44061816128688169A26841EA21
:102E800002218161D5E72868D4E9002C277B016AFB
:102E900021F480710162C169036A21F0030141EAF2
:102EA0000C0121F0F00C39074FF420674CEA116156
:102EB00023F4206307EA02221A43C16102622868F0
:102EC000C16921F00C01C1612868C169A268114380
:102ED00028E02868D4E90027E168036A23F48053D6
:102EE0000362D0F81CC0036A2CF4407C4CEA07272C
:102EF0004FF6FF7C27F470470CEA013139434FF459
:102F0000204723F4204307EA02321A43C1610262D8
:102F10002868C16921F44061C1612868C169A2685B
:102F200041EA0221C16184E710B5040003D094F89E
:102F30003D0010B107E0012010BD002084F83C00E6
:102F4000204600F01FF8022084F83D00211D206873
:102F500002F06AF8012084F8460084F83E0084F804
:102F60003F0084F8400084F8410084F8420084F86F
:102F7000430084F8440084F8450084F83D000020B4
:102F800010BD000070B586B0044614216846FDF7F8
:102F900047FA1E491C4E256800231C4A103902249A
:102FA0001B48B54211D1156845F00205156012683D
:102FB00002F0020205920A6842F002020A60096801
:102FC00001F002010591102113E0124EB54218D113
:102FD000156845F004051560126802F004020592B8
:102FE0000A6842F002020A60096801F002010591D4
:102FF000B1150091CDE90143CDE903346946FEF7EF
:10300000CFFD06B070BD0000000400404038024013
:10301000000402400008004070B5044600680169E1
:103020004FF00005C943890715D4C168C943890712
:1030300011D4E91E01610120207720688069800792
:10304000204602D0FFF7E0FE04E000F015F920462C
:1030500000F0D0F9257720680169C943490717D4E2
:10306000C168C943490713D46FF00401016102200C
:1030700020772068806910F4407F204602D0FFF757
:10308000C3FE04E000F0F8F8204600F0B3F925771D
:1030900020680169C943090716D4C168C9430907F3
:1030A00012D46FF008010161042020772068C06904
:1030B0008007204602D0FFF7A7FE04E000F0DCF80E
:1030C000204600F097F9257720680169C943C906B1
:1030D00017D4C168C943C90613D46FF01001016148
:1030E000082020772068C06910F4407F204602D075
:1030F000FFF78AFE04E000F0BFF8204600F07AF9FE
:10310000257720680169C943C90708D1C168C94347
:10311000C90704D1891E0161204600F0D1F9206859
:103120000169C943090609D4C168C943090605D420
:103130006FF0800101612046FFF706FD20680169FC
:10314000C943490609D4C168C943490605D46FF08B
:1031500040010161204600F0BDF920680169C943C2
:1031600089060BD4C168C943890607D46FF02001D2
:1031700001612046BDE87040FFF7E7BC70BD00006C
:10318000F0B587B0044614216846FDF749F9344B81
:103190002168002433480225334A344E994223D112
:1031A000016841F001010160016801F00101059130
:1031B000016841F0020101600068012700F002008F
:1031C00005904FF4F0600090CDE90154CDE903473C
:1031D00069461046FEF7E4FC4FF440400090CDE90C
:1031E00001546946304635E0214B994236D1016899
:1031F00041F001010160016801F0010105910168E0
:1032000041F002010160016801F0020105910168CD
:1032100041F0040101600068032700F004000590FC
:1032200020200090CDE90154CDE9034769461046BE
:10323000FEF7B6FC0097CDE90154CDE90347694696
:103240003046FEF7ADFC4FF4E0700090CDE901543C
:1032500008486946CDE90347FEF7A2FC07B0F0BD78
:1032600000000140303802400000024000040240EB
:103270000004014000080240704770B5044690F811
:103280003C0000260D4601280FD0012084F83C00A8
:103290006AB1042A1DD0082A2FD00C2A3FD001265B
:1032A000002084F83C00304670BD022070BD2068CC
:1032B00001F038FF2068816941F0080181612068D0
:1032C000816921F004018161206881692A691143C3
:1032D00011E0206801F056FF2068816941F4006127
:1032E00081612068816921F4806181612068816940
:1032F0002A6941EA02218161D2E7206801F078FF62
:103300002068C16941F00801C1612068C16921F0EC
:103310000401C1612068C1692A69114311E0206874
:1033200001F09AFF2068C16941F40061C161206821
:10333000C16921F48061C1612068C1692A6941EADB
:103340000221C161ACE710B5040003D094F83D0040
:1033500010B107E0012010BD002084F83C00204699
:1033600000F01EF8022084F83D00211D206801F0C5
:103370005BFE012084F8460084F83E0084F83F009C
:1033800084F8400084F8410084F8420084F8430047
:1033900084F8440084F8450084F83D00002010BD06
:1033A00008B5114A01681148914208D1016841F0FD
:1033B00001010160006800F00100009008BD0C4AA6
:1033C0009142FBD1016841F00201016000680022D6
:1033D00000F0020000900F212D20FFF717F8BDE844
:1033E00008402D20FFF704B8000001404438024097
:1033F000000401407047000010B50446022249B1A4
:1034000004290ED0082913D094F84100012816D0C1
:10341000012010BD94F83E000128F9D184F83E2027
:103420000FE094F83F000128F2D184F83F2008E033
:1034300094F840000128EBD184F8402001E084F8A2
:1034400041200122206801F053FE16492068164AE7
:10345000884201D0904203D1436C43F4004343645B
:103460002068884213D0B0F1804F10D00F498842B5
:103470000DD00F4988420AD00E49884207D09042A9
:1034800005D00D49884202D00C49884204D1816898
:1034900001F00701062903D0016841F00101016034
:1034A000002010BD00000140000401400004004065
:1034B00000080040000C004000400140001800409F
:1034C00000680349884201D1FEF71ABF7047000027
:1034D000002000407047704770470000F8B5016851
:1034E00004460868CA684B6910F00F0F4FF00005DA
:1034F00059D003F0010602F49077374365D0C10735
:1035000005D0D10503D5216C41F0010121644107AB
:1035100005D5D90703D0216C41F002012164810750
:1035200005D5D90703D0216C41F0040121640107BE
:1035300007D502F02001314303D0216C41F008018E
:103540002164216C00293AD0800604D5900602D56A
:10355000204601F033FF20684069216CC0F38010E1
:10356000090700D460B3204601F001FF20684069DC
:10357000400621D52068143050E8001F21F040019A
:1035800040E80012002AF5D1A06BA8B16C49016592
:10359000A06BFEF74EF9002811D0A06B016D01B0B1
:1035A000BDE8F040084783060FD593060DD52046A9
:1035B000BDE8F84001F002BF2046FFF78DFFF8BDDF
:1035C0002046FFF789FF2564F8BD266B2023012ED6
:1035D00079D1C60677D5D60675D5086848680090B3
:1035E0004869400640D5A16B086840680004000C9B
:1035F000EAD0A28D8242E7D9E085C869B0F5807F24
:103600002DD020680C3050E8001F21F4807140E874
:103610000012002AF5D12068143050E8001F21F074
:10362000010140E80012002AF5D12068143050E86A
:10363000001F21F0400140E80012002AF5D184F873
:103640003E30256320680C3050E8001F21F0100147
:1036500040E80012002AF5D1A06BFEF7A1F8A08D7A
:10366000E18D401A81B229E0A08DE18D401A81B22E
:10367000E08D0028A8D00029A6D020680C3050E8A2
:10368000002F22F4907240E80026002EF5D1206829
:10369000143050E8002F22F0010240E80026002EEE
:1036A000F5D184F83E30256320680C3050E8002FB7
:1036B00022F0100240E80023002BF5D12046FFF74E
:1036C0000AFFF8BDFFE705062BD5150629D594F8A6
:1036D0003D002128F5D1A068B0F5805F01D12069B7
:1036E000B0B1206A411C2162216800784860E08CFA
:1036F000401E0004000CE084E3D12068C16821F082
:103700008001C1602068C16841F04001C160D8E714
:10371000206A0088C0F308004860206A801C20628C
:10372000E5E74006CDD55006CBD5CA68204622F045
:103730004002CA6084F83D3000F0C7F8C1E70000DD
:103740005F53000870B5040004D094F83D000025D4
:1037500010B106E0012070BD84F83C50204600F016
:1037600023F8242084F83D002068C16821F400512A
:10377000C160204601F082FE2068016921F4904179
:1037800001612068416921F02A0141612068C16816
:1037900041F40051C1602564202084F83D0084F884
:1037A0003E00002070BD000010B586B00446142114
:1037B0006846FCF735FE14492068884221D1134839
:1037C0000021026842F480220260006800F4802038
:1037D00005900E481038026842F00402026000684A
:1037E00000F0040005904FF4406000900220CDE905
:1037F0000101032003900720049069460448FEF766
:10380000CFF906B010BD000000480040403802402B
:1038100000080240704700002DE9F843044690F884
:103820003D001F4616460D4620284CD1C5B1BEB1FD
:1038300094F83C00012846D0012084F83C004FF069
:103840000008C4F84080212084F83D00FEF7B2FA59
:10385000A6848146E684A068B0F5805F03D004E0CA
:103860000120BDE8F883206928B12E465FF00005ED
:1038700084F83C800EE00026FAE78021204601F023
:1038800083FEA0B9AEB116F8010B21684860E08C48
:10389000401EE084E08C4B464FF000020097002869
:1038A000EBD14FF04001204601F06EFE30B1032015
:1038B000D7E735F8020BC0F30800E6E7202084F8CC
:1038C0003D000020CDE70220CBE77047FEE701680E
:1038D0004A69D24352050FD46FF480624A610021D5
:1038E00040F8301F202242738173026942F00402C3
:1038F0000261017301207047002070472DE9F84FE5
:103900000446C06A1E4693460D4621680A6842F482
:1039100080620A60082807D0012805D010F5803F92
:1039200002D0206B112804D12068016841F4807115
:1039300001604FF001195B4600224946204600967F
:1039400000F0C6F84FF4007840B120680068C00568
:1039500001D5C4F840800320BDE8F88F2069DFF866
:1039600084A0B0F5804F0FD00620216800EAD5175B
:1039700047F0F000086133465A460AF10601204636
:1039800000F0DAF858BB03E0E8B240F001001CE0B8
:103990002168E8B2086133465A465146204600F095
:1039A000CBF8E0B92068416981690091016841F470
:1039B000807101605B46002249462046009600F077
:1039C00087F80028C1D147F0F1002168086133462B
:1039D0005A465146204600F0AFF80028BCD00120DE
:1039E000BAE7000002000100F8B50446C06A1E46AE
:1039F0000D461746082807D0012805D010F5803F4E
:103A000002D0206B122804D12068016841F4807133
:103A10000160134600224FF001112046009600F08D
:103A200057F840B120680068C00502D54FF4007017
:103A300020640320F8BD2069B0F5804F0ED0062029
:103A4000216800EAD51040F0F000086133463A469C
:103A50000B49204600F070F878B902E005F0FE004E
:103A600000E0E8B221680861054933463A46891FFB
:103A7000204600F061F80028DCD00120F8BD0000ED
:103A80000800010070B516460D4604460DE02046BC
:103A9000FFF71DFF08B1012070BD681C05D0FEF7BF
:103AA00089F9801BA84207D835B120684069C04316
:103AB0004007ECD4002070BD002044F8300F2021D6
:103AC0006173A073216941F0200121612073E2E755
:103AD0002DE9F0471E4690460D460446C1F30747C0
:103AE000DDF8209008E0701C06D0FEF763F9A0EB2B
:103AF0000900B0420FD876B12068012F18D0806934
:103B000025EA00000004000C14D000214145EAD051
:103B10000020BDE8F087002044F8300F20216173B9
:103B2000A073216941F02001216120730120F0E799
:103B30004069E5E70121E9E72DE9F0479A4691461A
:103B40000E46044600254FF02008C1F3074725E044
:103B500020684069C043400514D42068016841F4DE
:103B60000071016021686FF480604861256384F80A
:103B70003D8084F83E50206C40F00400206484F8BE
:103B80003C501FE0B9F1FF3F08D0FEF713F9A0EB5E
:103B90000A0149450CD8B9F1000F09D02068012F5E
:103BA00013D0806926EA00000004000C0BD0CFE798
:103BB00044F8305F84F80D80A573206940F0200040
:103BC000206125730120BDE8F0874069EAE72DE90F
:103BD000F041002590460E460446202717E0406934
:103BE000C043C0060CD454F8301B6FF0100048617D
:103BF00044F810596777A577206A2062257717E087
:103C0000FEF7D8F8A0EB0800B04208D83EB1206813
:103C10004169C9434906E2D40020BDE8F08144F877
:103C2000305F6773A573206940F020002061257321
:103C30000120F2E770B516460D4604460DE0204619
:103C4000FFF745FE08B1012070BD681C05D0FEF7E6
:103C5000B1F8801BA84207D835B120684069C0433D
:103C60000006ECD4002070BD002044F8300F202165
:103C70006173A073216941F0200121612073E2E7A3
:103C800090ED560ADFED260AB0F94E129FED251A87
:103C900020EE200A00EE901AF8EEE00A00EE810A0B
:103CA00080ED560AFDEEC00A10EE901AA0F84E12F2
:103CB000D0ED5B0A70EEC00AC0ED5C0A90ED5E1AB2
:103CC00090ED590A00EE801A80ED5E1A90ED7B0AA5
:103CD000B4EEC01AF1EE10FA02DD80ED5E0A08E0E3
:103CE000F1EE401AB4EEE11AF1EE10FA01D2C0ED95
:103CF0005E1A90ED5E1AD0ED581A01EEA01A80ED12
:103D0000501AB4EEC01AF1EE10FA06DCB1EE400A19
:103D1000B4EEC01AF1EE10FA01D280ED500A7047ED
:103D20000AD7233CA4707D3F00EE101A9FED1C1AA9
:103D300010B5F8EEC00A2DED028B044680EE810A24
:103D4000F0EE000A20EE200ADFED160A20EE208AAF
:103D5000B0EE480AFCF794FAD4ED040A60EE208A2B
:103D6000B0EE480AFCF7C8FAD4ED050A40EE808AA6
:103D7000B0EE480AC4ED028AFCF7BEFAD4ED040A9C
:103D800060EE208AB0EE480AFCF77AFAD4ED050A14
:103D900040EEC08AC4ED038ABDEC028B10BD00006A
:103DA00000088045DB0F494090ED570ADFED260AF9
:103DB000B0F950129FED251A20EE200A00EE901A5D
:103DC000F8EEE00A00EE810A80ED570AFDEEC00A27
:103DD00010EE901AA0F85012D0ED620A70EEC00AF0
:103DE000C0ED630A90ED651A90ED600A00EE801A4E
:103DF00080ED651A90ED7B0AB4EEC01AF1EE10FA70
:103E000002DD80ED650A08E0F1EE401AB4EEE11A39
:103E1000F1EE10FA01D2C0ED651A90ED651AD0ED01
:103E20005F1A01EEA01A80ED511AB4EEC01AF1EE3D
:103E300010FA06DCB1EE400AB4EEC01AF1EE10FA48
:103E400001D280ED510A70470AD7233CA4707D3F10
:103E50007FB500211B48009101910291184A0391FE
:103E6000026001244FF400320461C0E901210176AF
:103E700080F82010144AC0E90A210225C561C160FA
:103E800080F830404461FDF745FA08B1FDF768F865
:103E90000E20CDE9000469460A480294FDF7FAF8BD
:103EA00008B1FDF75DF80F20CDE90005694605482A
:103EB000FDF7F0F8002801D0FDF752F87FBD0000B3
:103EC00000200140540500200100000F7FB50021B3
:103ED0001B48009101910291184A0391026001244C
:103EE0004FF400320461C0E90121017680F820100E
:103EF000144AC0E90A210225C561C16080F830403A
:103F00004461FDF707FA08B1FDF72AF80320CDE96F
:103F1000000469460A480294FDF7BCF808B1FDF7B1
:103F20001FF80420CDE9000569460548FDF7B2F801
:103F3000002801D0FDF714F87FBD000000210140EA
:103F40009C0500200100000F0D4810B50B490160D1
:103F50001021416000218160C160016141610176F1
:103F600041768176C17601774177FDF74DFB0028D8
:103F700003D0BDE81040FCF7F3BF10BD006800405F
:103F8000A4060020094808B5016841F480010160D9
:103F90000068002200F48000009005213820FEF720
:103FA00035FABDE808403820FEF722BA3038024022
:103FB00010B50B4A00210B4802F08EFC0A4C084A4F
:103FC0000021E0602432094802F086FC044A2061A6
:103FD00048320021064802F07FFC606110BD0000FD
:103FE0002C800008ED4B000800000020614C000808
:103FF0006D4E00082DE9F04F87B014216846FCF79C
:104000000FFA48480024016841F00401016001688A
:1040100001F004010591016841F08001016001682F
:1040200001F080010591016841F001010160016822
:1040300001F001010591016841F002010160016890
:1040400001F002010591016841F00801016000687A
:10405000DFF8D49000F00800059000224021484687
:10406000FDF7A3FE00220C213048FDF79EFEDFF88D
:10407000C0A04FF49057002239465046FDF795FEF8
:104080004FF40048012241464846FDF78EFEDFF816
:10409000A4B0002204215846FDF787FE4FF460408B
:1040A0004FF48816CDE90006694602945046FDF7A4
:1040B00077FD402000900125CDE90154694648462E
:1040C0000394FDF76DFD0C200090CDE90154694685
:1040D00016480394FDF764FD0097CDE90154694645
:1040E00050460394FDF75CFDCDE90085CDE902540F
:1040F00069464846FDF754FD0420CDE9000503203C
:10410000CDE9024069465846FDF74AFDF012CDE977
:104110000006694602940548FDF742FD07B0BDE878
:10412000F08F0000303802400000024000040240DE
:1041300000080240000C02400D4810B50B49016018
:104140000C49416000214FF480428160C0E90312B4
:1041500041618161C1610162FDF732FE002803D037
:10416000BDE81040FCF7FCBE10BD0000005400404C
:10417000CC060020801A06000D4810B50B490160DE
:104180000C49416000214FF480428160C0E9031274
:1041900041618161C1610162FDF712FE002803D017
:1041A000BDE81040FCF7DCBE10BD00000058004028
:1041B00020070020801A060010B5002205211220D9
:1041C000FEF724F91220FEF713F90022052117202B
:1041D000FEF71CF91720FEF70BF900220521182025
:1041E000FEF714F91820FEF703F900220521192023
:1041F000FEF70CF91920FEF7FBF8002205211A2022
:10420000FEF704F91A20FEF7F3F8002205211B201F
:10421000FEF7FCF81B20FEF7EBF8002205211D201D
:10422000FEF7F4F81D20FEF7E3F800220521272011
:10423000FEF7ECF82720FEF7DBF800220521282006
:10424000FEF7E4F82820FEF7D3F8002205212B2002
:10425000FEF7DCF82B20FEF7CBF8002205212C20FE
:10426000FEF7D4F82C20FEF7C3F8002205212E20FB
:10427000FEF7CCF82E20FEF7BBF8002205213A20ED
:10428000FEF7C4F8BDE810403A20FEF7B1B80000D0
:1042900010B592B000240F941C2168461094FCF7CE
:1042A000BFF8202107A8FCF7BBF82948274901607F
:1042B000012141604021816040F28F61C0E9031417
:1042C00044618461FFF73FF808B1FCF749FE202004
:1042D000CDE90F040FA91E48FEF762FC08B1FCF7F8
:1042E0003FFE6020CDE900040294039404940594F9
:1042F0000022694616480694FEF7BFFF08B1FCF796
:104300002FFE042269461248FEF7B7FF08B1FCF7FA
:1043100027FE082269460E48FEF7AFFF08B1FCF7FA
:104320001FFE0794089409944FF400500A94CDE9B5
:104330000B4007A906480E94FEF708FC08B1FCF7ED
:104340000FFE0348FEF71CFF12B010BD0000014035
:104350007407002010B586B000241F48059404940B
:104360000094019402941B49039401600321C0E965
:1043700001144FF6FF71C0E903148461FEF7D4FD08
:1043800008B1FCF7EDFD049404A913480594FEF769
:1043900007FC08B1FCF7E4FD0120CDE90040042052
:1043A000CDE90240002269460B48FEF72EFD08B118
:1043B000FCF7D6FD02200090019004226946039488
:1043C0000548FEF722FD002801D0FCF7C9FD06B024
:1043D00010BD000000040040BC07002010B586B0EE
:1043E00000241F48059404940094019402941B49EE
:1043F000039401600321C0E901144FF6FF71C0E985
:1044000003148461FEF790FD08B1FCF7A9FD049444
:1044100004A913480594FEF7C3FB08B1FCF7A0FDFF
:104420000120CDE900400420CDE902400822694680
:104430000B48FEF7EAFC08B1FCF792FD0220009061
:1044400001900C22694603940548FEF7DEFC002823
:1044500001D0FCF785FD06B010BD0000000800404B
:10446000040800201CB500240F4800940D49019455
:1044700001600921C0E9011444F29F118461C16007
:10448000FEF736FC08B1FCF76BFD2020CDE90004F7
:1044900069460548FEF784FB002801D0FCF760FD63
:1044A0001CBD0000001000404C08002010B592B068
:1044B00000240F941C2168461094FBF7B1FF2021C3
:1044C00007A8FBF7ADFF294827490160012141609A
:1044D0004021816040F28F61C0E90314446184612E
:1044E000FEF731FF08B1FCF73BFD2020CDE90F04BA
:1044F0000FA91E48FEF754FB08B1FCF731FD602000
:10450000CDE90004029403940494059400226946C2
:1045100016480694FEF7B1FE08B1FCF721FD04220F
:1045200069461248FEF7A9FE08B1FCF719FD0822FA
:1045300069460E48FEF7A1FE08B1FCF711FD07948D
:10454000089409944FF400500A94CDE90B4007A950
:1045500006480E94FEF7FAFA08B1FCF701FD03488D
:10456000FEF70EFE12B010BD0004014094080020BA
:104570000C4810B50A4901604FF4613141600021D7
:1045800081600C22C160C0E904128161C161FFF742
:10459000D9F8002803D0BDE81040FCF7E1BC10BDFD
:1045A00000480040DC0800200C4810B54FF0A04146
:1045B00001600421416002220021C0E90321C0E919
:1045C000062101624162C1620163FDF751FF0028CB
:1045D00003D0BDE81040FCF7C3BC10BD200900208B
:1045E000FEE780F82C11704790ED861A90ED870A4F
:1045F00071EE000A10EE901AB1F17E5F09DDC1EE96
:10460000201AC0ED861A71EE800A80EE201A80ED25
:10461000871A704770B52DED048B0446002084F88E
:10462000D001B0EE080A9FED258A84ED500A84ED92
:10463000518AA56CE86AFBF770FF9FED211B53ECD4
:10464000112BFBF7F8FEFBF775FF6863A56CE86AB2
:10465000FBF763FF9FED1C9B53EC192BFBF7EBFE65
:10466000FBF768FFA863A56CE86AFBF756FF53ECFD
:10467000192BFBF7E0FEFBF75DFFE86300254FF425
:104680007A7600BFB4F8D601A4F8DE01204601F026
:1046900011FEB4F8DE31B4F9DA21B4F8D6110CA069
:1046A00001F04AF96D1CB542ECDB012084F8D00121
:1046B00084ED508ABDEC048B70BD0000000000004A
:1046C000666666666666E63F9A9999999999C93FC2
:1046D00043616C6962726174656420616E676C65C8
:1046E0003A25642C25642C25640A00000FB434227A
:1046F00070B5044605A9509DFBF779FE12986063DA
:1047000013981499C4E90E011598206416986064F2
:104710003D2217A904F14800FBF769FE9DF89900B6
:1047200084F885009DF89A0084F886009DF89B0027
:1047300084F887009DF89C0084F888009DF89D000F
:1047400084F889009DF89E0084F88A009DF89F00F7
:1047500084F88B009DF8A00084F88C009DF8A100DF
:1047600084F88D009DF8A20084F88E003D2229A9CE
:1047700004F19000FBF73BFE9DF8E10084F8CD00CA
:104780009DF8E20084F8CE009DF8E30084F8CF00A5
:104790009DF8E40084F8D0009DF8E50084F8D1008D
:1047A0009DF8E60084F8D2009DF8E70084F8D30075
:1047B0009DF8E80084F8D4009DF8E90084F8D5005D
:1047C0009DF8EA0084F8D6002A223BA904F1D8001B
:1047D000FBF70DFEBDF81601A4F802014698C4F8D7
:1047E00004014798C4F80801092248A904F5867015
:1047F000FBF7FDFD9DF8290184F815019DF82A01BC
:1048000084F816014B98C4F818014C98C4F81C01A0
:104810004D98C4F820014E98C4F824014F98C4F86C
:10482000280184F82C51002117A8FEF7E5FD00218E
:1048300017A8FEF7FDF9042117A8FEF7DDFD0421F6
:1048400017A8FEF7F5F9082117A8FEF7D5FD17A858
:1048500070BC08215DF814EBFEF7EAB9FEE7000032
:1048600000EE101A9FED1C1A10B5F8EEC00A2DEDDF
:10487000028B044680EE810AF0EE000A20EE200A48
:10488000DFED160A20EE208AB0EE480AFBF7F8FCAE
:10489000D4ED020A60EE208AB0EE480AFBF72CFD48
:1048A000D4ED030A40EE808AB0EE480AC4ED048AD3
:1048B000FBF722FDD4ED020A60EE208AB0EE480A32
:1048C000FBF7DEFCD4ED030A40EEC08AC4ED058A96
:1048D000BDEC028B10BD000000088045DB0F494095
:1048E00000F5DA7080EC030A7047B5EEC00AF1EE0D
:1048F00010FA01D2B1EE400A10EE101AB1F18B4F4E
:104900000DDDBDEEC00A10EE101ACA1701EB1252EF
:104910006FF30B02891A00EE101AB8EEC00A80ED90
:10492000700A704700F5BE7100F5B07081EC030AA3
:1049300080EC030A704700009FED0C1A80F8D1113B
:1049400080F8D22120EE010A80F8D331490880EDA9
:104950007A0A00EE101A9FED061AB8EE400A20EE11
:10496000010A80ED7B0AC0ED7C0A70470000F84325
:10497000D7B3DD3F10B50446FCF738FB94F8D101FE
:1049800000EE100AB8EE400ADFED620A80EE801AEF
:1049900094ED800A21EE001A00EE100AF8EE400AAB
:1049A000DFED5D1A81EEA00AD4ED820A20EE200A26
:1049B00000EE900A94F8FC01F8EE600A072881EEF8
:1049C000A02AD4ED810A62EE200A1CD2DFE800F0B2
:1049D0001B04070E15444900C4ED860A03E084ED6C
:1049E000860AB1EE410A84ED870A0CE0B1EE600A56
:1049F00084ED860A84ED871A05E0B1EE410A84ED64
:104A0000860AC4ED870A2046FFF7EEFD94ED861A6C
:104A1000B7EE000AD4ED871A30EE410AF5EE000A2F
:104A2000B6EE002A04F5087030EE610A20EE200A86
:104A3000F0EE400A41EE020AB0EE601A01EE821A70
:104A400080EC030A94F8FC01072834D2DFE800F078
:104A50003310171C21262D0084ED861AB1EE400A72
:104A6000C1E7B1EE400A84ED860AB1EE600ABAE70A
:104A7000C4ED8B0A84ED8C0A84ED8D1A1BE084ED65
:104A80008B0A84ED8C1A0DE004F50B7080EC030AA0
:104A900011E084ED8B1AC4ED8C0A0AE084ED8B1AC8
:104AA00084ED8C0AC4ED8D0A05E0C4ED8B0A84ED1B
:104AB0008C1A84ED8D0AA06CD4ED8B0AC16A00EECD
:104AC000101AB8EE400A20EE800ABCEEC00A10EEC2
:104AD000101A4163A06CD4ED8C0AC16A00EE101A62
:104AE000B8EE400A20EE800ABCEEC00A10EE101AA2
:104AF0008163A06CD4ED8D0AC16A00EE101AB8EE85
:104B0000400A20EE800ABCEEC00A10EE101AC16303
:104B100010BD0000D7B3DD3FD7B3DDBFC0ED7C1AB9
:104B200000F5CC7080EC030A7047D0ED7C0AF4EEFF
:104B3000C00AF1EE10FA06D3F1EE600AF4EEC00AF4
:104B4000F1EE10FA02DDC0ED690A704780ED690AE6
:104B50007047000090ED690AD0ED780A30EE600AE7
:104B600080ED6A0A90ED6C1AD0ED670A00EE201A0B
:104B700080ED6C1AD0ED7A0AB4EEE01AF1EE10FA7C
:104B800002DDC0ED6C0A08E0F1EE601AB4EEE11A45
:104B9000F1EE10FA01D2C0ED6C1A80ED6B0A90EDC7
:104BA0006C1AD0ED661A01EE801A30EE400AD0ED94
:104BB000681A01EE801A9FED0C0A80ED621AB4EEBD
:104BC000E01A80ED5B0AF1EE10FA02DDC0ED620A38
:104BD0007047B1EE600AB4EEC01AF1EE10FAF7D2E7
:104BE00080ED620A704700000000000088B0DFF826
:104BF00054A000BFBAF8D6110A20B1FBF0FBDAF8D6
:104C00008801FBF7B0FC80468946DAF85C01FBF7C7
:104C1000AAFC06460F46DAF86C01FBF7A4FC044632
:104C20000D46DAF85801FBF79EFC8DE8F00B41ECDD
:104C3000100B05A053EC102B00F07EFE012001F0BC
:104C40000FFED7E7AC000020252E32662C252E3231
:104C5000662C252E32662C252E32662C25640A0001
:104C60002DED028B734CDFF8D0B18AB094F82D0192
:104C7000012817D100216F48FFF7B3FC02216E48CD
:104C8000FFF7AFFCB4F8D60100EE100A6A48B8EEA0
:104C9000400AFFF72AFEBBF8D621B4F8D61167A068
:104CA00000F04AFE94F82D01022876D103216148D4
:104CB000FFF797FC02216048FFF793FCBBF8D60191
:104CC000B4F8D6115F46401AB0F5006F01DDA0F5CB
:104CD000805010F5006F01DA00F5805000EE100AE8
:104CE000584A5548B8EEC00AD2ED000A20EE800AB4
:104CF00084ED510A00EE101AB8EE400AFFF7F5FDF8
:104D0000B7F8D601B2EE048A00EE100AF8EE400AB7
:104D100080EE880ADFED4C8A30EE280A10EE100A89
:104D2000FBF721FC0546B4F8D6010E4600EE100A4A
:104D3000B8EE400AC0EE080A30EEA80A10EE100ADB
:104D4000FBF711FCCDE90201D7F85C01FBF70BFC86
:104D5000CDE90001D7F85801FBF705FC81468A46EA
:104D6000D4F85C01FBF7FFFB07468846D4F85801EE
:104D7000FBF7F9FBCDE9085641EC100BDDE9020128
:104D8000CDE90601DDE90001CDE904018DE88007E8
:104D900053EC102B2DA000F0CFFD94F82D0103282B
:104DA0001FD102212348FFF71CFC2648B4F8D62166
:104DB00041684FF4805090FBF1F092FBF0F192FBD0
:104DC000F0F300FB1322414300EBD073B2EB630F0F
:104DD00000DD014400EE101A1648B8EEC00AFFF7D5
:104DE00084FD9BF82D015D4603281FD10221124846
:104DF000FFF7F7FB1348B5F8D62181684FF48050D0
:104E000090FBF1F192FBF1F092FBF1F301FB132225
:104E1000484301EBD173B2EB630F00DD084400EEB1
:104E2000100A0548B8EEC00AFFF75FFD012001F047
:104E300017FD1BE7AC0000200003002025642C2593
:104E4000640A0000000000200000FA43252E3266AC
:104E50002C252E32662C252E32662C252E32662CE1
:104E6000252E32662C252E32660A0000012001F024
:104E7000F7FCFBE710B54FF0E020006902F020FFDF
:104E8000012803D0BDE8104002F04EBC10BD000068
:104E900030B593B030216846FBF7C2FA14210CA854
:104EA000FBF7BEFA1D480025016841F08051016002
:104EB000006800F0805011901948016841F4804169
:104EC00001600068022400F48040119001200090ED
:104ED000000401908001CDE9064004200890A8203C
:104EE000CDE9090407200B906846FDF777FC08B16F
:104EF00072B6FEE70CA90F2081E831004FF4A050F4
:104F00000F904FF48050109005210CA8FDF75CFB2A
:104F1000002801D072B6FEE713B030BD4038024021
:104F2000007000400248016841F470010160704760
:104F300088ED00E00148FEF76FB80000740700201C
:104F40000148FEF769B80000740700200148FEF729
:104F500063B8000074070020064810B500680068B8
:104F6000C00602D50448FBF70DFDBDE8104001481E
:104F7000FEF752B874070020000300200148FEF736
:104F80004BB80000BC07002010B5084801F05DF9DF
:104F9000074801F05AF9054801F09EF9044801F06C
:104FA0009BF9BDE810400348FEF736B8AC0000207E
:104FB000000300204C0800200148FEF72DB8000037
:104FC000940800200148FEF727B80000940800204C
:104FD00010B50448FEF720F8BDE810400248FEF77F
:104FE0001BB80000940800202C0E00200A4810B5C1
:104FF00000680068C00605D50848FBF7C3FC0848F0
:10500000FBF7C0FC04210748FCF7C7FEBDE81040D1
:105010000148FEF701B8000094080020AC00002011
:1050200000030020000C0240F0B50268254C264D1C
:10503000264E274F274B4FF0804CA04209D06045A9
:1050400007D0A84205D0B04203D0B84201D0984260
:1050500004D122F0700E4A6842EA0E02A0421BD030
:10506000604519D0A84217D0B04215D0B84213D02D
:10507000984211D0184DA8420ED0184DA8420BD01E
:10508000174DA84208D0174DA84205D0164DA8428A
:1050900002D0164DA84203D122F44075CA682A43B3
:1050A0004D6922F080022A4302608A68C2620A685F
:1050B0008262A04201D0984201D1096901630121B5
:1050C0004161F0BD000001400004004000080040C4
:1050D000000C004000040140004001400044014039
:1050E0000048014000180040001C00400020004023
:1050F00010B501F01F030121046A99408C4304623A
:10510000016A9A401143016210BD10B501F01F03FE
:105110000421046A99408C430462016A9A40114355
:10512000016210BDF0B5026A22F001020262036A58
:1051300042688469124E24F073050C682C4323F0F6
:1051400002058B682B430D4DA84201D0B04205D11A
:1051500023F00807CB683B4323F00403A84201D0A7
:10516000B04205D14D6922F4407215438A692A4341
:1051700042608461496841630362F0BD0000014000
:1051800000040140F0B5026A22F010020262026AD5
:10519000436884690D6824F4E64444EA05248D6874
:1051A00022F0200242EA05120F4D104EA84201D013
:1051B000B04206D1CF6822F0800242EA071222F004
:1051C0004002A84201D0B04207D14D6923F44063A8
:1051D00043EA85038D6943EA850343608461496836
:1051E00081630262F0BD0000000001400004014044
:1051F000F0B5026A22F480720262026A4368C469EE
:1052000022F4007224F073050C68124E2C438D6852
:1052100042EA05220E4DA84201D0B04206D1CF6825
:1052200022F4006242EA072222F48062A84201D0FE
:10523000B04207D14D6923F4405343EA05138D6909
:1052400043EA05134360C4614968C1630262F0BD6B
:10525000000001400004014030B5026A22F480528F
:105260000262046A4268C3690D6823F4E64343EAB4
:1052700005238D6824F4005444EA0534084DA842FF
:1052800002D0084DA84204D14D6922F4804242EA7E
:1052900085124260C36149680164046230BD000048
:1052A000000001400004014070B5046A24F00104CC
:1052B00004628469056A154EB04214D0B0F1804F83
:1052C00011D0134EB0420ED0124EB0420BD0124E3F
:1052D000B04208D0114EB04205D0114EB04202D0BB
:1052E000104EB04203D124F00304144301E044F013
:1052F00001041A0724F0F00444EA126225F00A03BC
:1053000001F00A0119438261016270BD0000014091
:105310000004004000080040000C00400004014070
:10532000004001400018004030B5046A24F0100429
:1053300004628469056A24F4407444EA022222F477
:1053400070444FF6FF7202EA03322243A02425F094
:10535000A00304EA011119438261016230BD10B556
:10536000806B0021C185C184FEF7B6F810BD0168CD
:105370000C3151E8002F22F4907241E80023002BF9
:10538000F5D10168143151E8002F22F0010241E803
:105390000023002BF5D1016B012909D101680C31E3
:1053A00051E8002F22F0100241E80023002BF5D134
:1053B000202180F83E1000210163704708B590F865
:1053C0003E10222901D0022008BD82684FF480538C
:1053D0009A4201D1016921B1816A9A421BD04AB136
:1053E0000AE00268816A5268C2F308020A80816A90
:1053F000891C08E0026972B10268526802F07F02FB
:105400000A70816A491C8162C18D491E0904090C18
:10541000C18503D019E002685268F1E70168CA68E3
:1054200022F02002CA600168CA6822F48072CA6051
:1054300001684A6922F001024A61202180F83E1089
:10544000016B012903D0FEF7E5F9002008BD00211A
:10545000016301680C3151E8002F22F0100241E88D
:105460000023002BF5D101680A68D20602D50A682C
:1054700049680091818DFEF72EF8E6E770B5044685
:1054800000680169E26821F440511143016121691A
:10549000A068E26908436169114308432168CA684A
:1054A00049F20C639A430243CA6020684169A269C9
:1054B00021F440711143416131492068884202D092
:1054C0003049884202D1FDF749F901E0FDF736F98C
:1054D000E2690023192164253226B2F5004F626883
:1054E00028D0A0FB0101930F9200FAF74FFF01466D
:1054F000B0FBF5F06FF01802504301EB800006EBB3
:105500000010B0FBF5F000F0F002B1FBF5F002EB9B
:105510000012B1FBF5F06FF01803584301EB800067
:1055200006EB0010B0FBF5F000F00F00216810440E
:10553000886070BDA0FB010192185B41FAF726FF5D
:105540000146B0FBF5F00201B1FBF5F06FF0180376
:10555000584301EB800006EBC000B0FBF5F000F013
:10556000F80002EB4002B1FBF5F0584301EB80007C
:1055700006EBC000B0FBF5F000F00700D6E7000036
:1055800000100140001401402DE9F04198461746F3
:105590000E460446069D27E0681C25D02DB1FCF779
:1055A00009FCA0EB0800A8421ED920680C3050E886
:1055B000001F21F4D07140E80012002AF5D12068C4
:1055C000143050E8001F21F0010140E80012002AC9
:1055D000F5D1202084F83D0084F83E00002084F8B6
:1055E0003C000320BDE8F0812068006836EA000036
:1055F00004D00020B842CFD00020F3E70120F9E723
:105600000148FDF76BBF0000DC08002070B50446C0
:1056100006990A9E049D0D98012916D0E06840F075
:105620004000E060204600F02BF8A16B1EB321F48F
:105630008031A163012D07D1A16841F00601A1606D
:10564000A16841F02001A16070BDA16B21F48031FF
:10565000A163E168094A1140E160E16821F4401169
:10566000E160012803D1E06840F48010E06020464A
:1056700000F006F8DEE741F48031DAE7BFFFBDFF56
:1056800008B500220D490092009B5B1C00938B42E1
:105690000CD80369002BF7DA0092026942F001028C
:1056A0000261009A521C00928A4201D9032008BD6F
:1056B0000269D207F5D1002008BD0000400D0300AB
:1056C000D0F8001E21F00301C0F8001ED0F8041825
:1056D00041F00201C0F80418002070472DE9F04F96
:1056E00000250E460446DDF82CC0DDF824B0109FDE
:1056F0002846294604EB8002C2F80411401C0F28FA
:10570000F8D32046C7B1806B20F40012A263A06BCF
:1057100040F40022A26308468846C4F8000ED4F87C
:1057200000182046C4F80018BCF1010F16D0D0F8BC
:10573000001841F0030116E0D0F8040840F002021E
:10574000C4F80428A06B40F40012A263A06B20F4FC
:105750000022A263A06B20F48022DBE7D0F80018BF
:105760000BB141F00101C0F80018102100F094F8CD
:1057700000B10125204600F071F800B10125404636
:10578000C4F81088C4F81488C4F81C8800214FF0AD
:1057900000694FF0904A4FF67F3314E004EB41125A
:1057A000D2F800C9BCF1000F06DA11B1C2F800A9A5
:1057B00004E0C4F8009901E0C2F80009C2F8100939
:1057C000C2F80839491C8E42E8D8002115E000BF14
:1057D00004EB4112D2F800CBBCF1000F06DA11B194
:1057E000C2F800AB04E0C4F8009B01E0C2F8000B73
:1057F000C2F8100BC2F8083B491C8E42E8D8D4F816
:10580000101821F48072C4F81028A0616FF0804055
:105810006061BBF1000F03D1A06940F01000A061EE
:10582000A06909490843A0610C9818B1A06940F02B
:105830000800A061012F03D1A06904490843A061B9
:105840002846BDE8F08F000000383C80040000408E
:10585000816821F0010181600020704708B50022B5
:105860000C490092009B5B1C00938B420AD8036991
:10587000002BF7DA009210220261009A521C00926B
:105880008A4201D9032008BD0269D206F5D400205E
:1058900008BD0000400D030018B500230D4A009319
:1058A000009C641C009494420CD80469002CF7DA24
:1058B0000093202343EA811101610099491C009162
:1058C000914201D9032018BD01698906F5D4002051
:1058D00018BD0000400D030070B50446C0680025E7
:1058E00020F0C040E060012901D079B120E0E068FB
:1058F00040F00050E0600120FCF720F960696D1C69
:1059000010F0010F10D1322DF5D30DE0E06840F01A
:105910008040E0600120FCF711F960696D1C10F017
:10592000010F01D0322DF5D3322D01D0002070BDF2
:10593000012070BDFEE700000FB4054B10B503A9B0
:10594000044A029800F0EAF810BC5DF814FB00006D
:105950009D620008A80000200907090E002804DB4A
:1059600000F1E02080F80014704700F00F0000F113
:10597000E02080F8141D704702E008C8121F08C11B
:10598000002AFAD170477047002001E001C1121FC0
:10599000002AFBD1704700002DE9FF5F82B0002193
:1059A000DDE90430020DDDF840B0034318D044F6C1
:1059B0001050A2F2FF3242431514119801281FD053
:1059C000A5EB0B00401C5FEA000A4FF000064E4FAB
:1059D000DFF83891B046504615D5CAF1000413E0FF
:1059E000119801244AA3012801D16FEA0B01029802
:1059F000119AC0E90031C0E9024206B0BDE8F09F4B
:105A0000CBF10000DFE704460021404A491842EB91
:105A10000450CDE9001012E0E00707D032463B46C3
:105A200040464946FAF707FD8046894632463B46DE
:105A300010461946FAF7FFFC06460F466410002C84
:105A4000EAD1DDE90401DDE90023BAF1000F06DA4D
:105A5000FAF7F1FC42464B46FAF7EDFC05E0FAF79F
:105A6000CEFE42464B46FAF7CAFE04460E460022D8
:105A7000284BFAF74BFF03D84FF0FF30014607E001
:105A80000022254B20463146FAF712FEFAF726FF90
:105A9000102409E0002C0ADB0A220023FAF776FC26
:105AA000039B30321A55641E50EA0102F2D1641C85
:105AB000039AC4F111031444119A012A03D001225C
:105AC00008430DD10AE0084304D000204FF0110B29
:105AD000119072E7A3EB0B056D1E0DE05B4504DD35
